:020000040000fa
:080000000002040000000000f2
:020000040000fa
:04000800860300006b
:020000040000fa
:04000c0004030000e9
:020000040000fa
:0400100046030000a3
:020000040000fa
:0400140024030000c1
:020000040000fa
:04001800660300007b
:020000040000fa
:04001c008603000057
:020000040000fa
:040020008603000053
:020000040000fa
:04002400860300004f
:020000040000fa
:04002800860300004b
:020000040000fa
:04002c008603000047
:020000040000fa
:040030008603000043
:020000040000fa
:04003400cc020000fa
:020000040000fa
:04003800860300003b
:020000040000fa
:04003c008603000037
:020000040000fa
:040040008603000033
:020000040000fa
:04004400860300002f
:020000040000fa
:04004800860300002b
:020000040000fa
:04004c008603000027
:020000040000fa
:040050008603000023
:020000040000fa
:04005400860300001f
:020000040000fa
:04005800860300001b
:020000040000fa
:04005c008603000017
:020000040000fa
:040060008603000013
:020000040000fa
:04006400860300000f
:020000040000fa
:04006800860300000b
:020000040000fa
:04006c008603000007
:020000040000fa
:040070008603000003
:020000040000fa
:0400740086030000ff
:020000040000fa
:0400780086030000fb
:020000040000fa
:04007c0086030000f7
:020000040000fa
:0400800086030000f3
:020000040000fa
:0400840086030000ef
:020000040000fa
:0400880086030000eb
:020000040000fa
:04008c0086030000e7
:020000040000fa
:0400900086030000e3
:020000040000fa
:0400940086030000df
:020000040000fa
:0400980086030000db
:020000040000fa
:04009c0086030000d7
:020000040000fa
:0400a00086030000d3
:020000040000fa
:0400a40086030000cf
:020000040000fa
:0400a80086030000cb
:020000040000fa
:0400ac0086030000c7
:020000040000fa
:0400b00086030000c3
:020000040000fa
:0400b40086030000bf
:020000040000fa
:0400b80086030000bb
:020000040000fa
:0400bc0086030000b7
:020000040000fa
:0400c00086030000b3
:020000040000fa
:0400c40086030000af
:020000040000fa
:0400c80086030000ab
:020000040000fa
:0400cc0086030000a7
:020000040000fa
:0400d00086030000a3
:020000040000fa
:0400d400860300009f
:020000040000fa
:0400d800860300009b
:020000040000fa
:0400dc008603000097
:020000040000fa
:0400e0008603000093
:020000040000fa
:0400e400860300008f
:020000040000fa
:0400e800860300008b
:020000040000fa
:0400ec008603000087
:020000040000fa
:0400f0008603000083
:020000040000fa
:0400f400860300007f
:020000040000fa
:0400f800860300007b
:020000040000fa
:0400fc008603000077
:020000040000fa
:040100008603000072
:020000040000fa
:04010400860300006e
:020000040000fa
:04010800860300006a
:020000040000fa
:04010c008603000066
:020000040000fa
:040110008603000062
:020000040000fa
:04011400860300005e
:020000040000fa
:04011800860300005a
:020000040000fa
:04011c008603000056
:020000040000fa
:040120008603000052
:020000040000fa
:04012400860300004e
:020000040000fa
:04012800860300004a
:020000040000fa
:04012c008603000046
:020000040000fa
:040130008603000042
:020000040000fa
:04013400860300003e
:020000040000fa
:04013800860300003a
:020000040000fa
:04013c008603000036
:020000040000fa
:040140008603000032
:020000040000fa
:04014400860300002e
:020000040000fa
:04014800860300002a
:020000040000fa
:040208008603000069
:020000040000fa
:04020c0004030000e7
:020000040000fa
:0402100046030000a1
:020000040000fa
:0402140024030000bf
:020000040000fa
:040218006603000079
:020000040000fa
:04021c008603000055
:020000040000fa
:040220008603000051
:020000040000fa
:04022400860300004d
:020000040000fa
:040228008603000049
:020000040000fa
:04022c008603000045
:020000040000fa
:040230008603000041
:020000040000fa
:04023400cc020000f8
:020000040000fa
:040238008603000039
:020000040000fa
:04023c008603000035
:020000040000fa
:040240008603000031
:020000040000fa
:04024400860300002d
:020000040000fa
:040248008603000029
:020000040000fa
:04024c008603000025
:020000040000fa
:040250008603000021
:020000040000fa
:04025400860300001d
:020000040000fa
:040258008603000019
:020000040000fa
:04025c008603000015
:020000040000fa
:040260008603000011
:020000040000fa
:04026400860300000d
:020000040000fa
:040268008603000009
:020000040000fa
:04026c008603000005
:020000040000fa
:040270008603000001
:020000040000fa
:0402740086030000fd
:020000040000fa
:0402780086030000f9
:020000040000fa
:04027c0086030000f5
:020000040000fa
:0402800086030000f1
:020000040000fa
:0402840086030000ed
:020000040000fa
:0402880086030000e9
:020000040000fa
:04028c0086030000e5
:020000040000fa
:0402900086030000e1
:020000040000fa
:0402940086030000dd
:020000040000fa
:0402980086030000d9
:020000040000fa
:04029c0086030000d5
:020000040000fa
:0402a00086030000d1
:020000040000fa
:0402a40086030000cd
:020000040000fa
:0402a80086030000c9
:020000040000fa
:0402ac0086030000c5
:020000040000fa
:0402b00086030000c1
:020000040000fa
:0402b40086030000bd
:020000040000fa
:0402b80086030000b9
:020000040000fa
:0402bc0086030000b5
:020000040000fa
:0402c00086030000b1
:020000040000fa
:0402c40086030000ad
:020000040000fa
:0402c80086030000a9
:020000040000fa
:0402cc0086030000a5
:020000040000fa
:0402d00086030000a1
:020000040000fa
:0402d400860300009d
:020000040000fa
:0402d8008603000099
:020000040000fa
:0402dc008603000095
:020000040000fa
:0402e0008603000091
:020000040000fa
:0402e400860300008d
:020000040000fa
:0402e8008603000089
:020000040000fa
:0402ec008603000085
:020000040000fa
:0402f0008603000081
:020000040000fa
:0402f400860300007d
:020000040000fa
:0402f8008603000079
:020000040000fa
:0402fc008603000075
:020000040000fa
:040300008603000070
:020000040000fa
:04030400860300006c
:020000040000fa
:040308008603000068
:020000040000fa
:04030c008603000064
:020000040000fa
:040310008603000060
:020000040000fa
:04031400860300005c
:020000040000fa
:040318008603000058
:020000040000fa
:04031c008603000054
:020000040000fa
:040320008603000050
:020000040000fa
:04032400860300004c
:020000040000fa
:040328008603000048
:020000040000fa
:04032c008603000044
:020000040000fa
:040330008603000040
:020000040000fa
:04033400860300003c
:020000040000fa
:040338008603000038
:020000040000fa
:04033c008603000034
:020000040000fa
:040340008603000030
:020000040000fa
:04034400860300002c
:020000040000fa
:040348008603000028
:020000040000fa
:100400004fd020000e7f22000e0188000000000067
:10041000000020000000e000020032000001200087
:100420002002880014000700ba0007000000e00066
:1004300003003a00a0022100010020000200370062
:100440000000200001002000810f70000100320038
:1004500014000700000020000000e000020032004d
:100460000000020000000000400f02000000000039
:100470000040da000000fe004440a9000000200017
:100480000000e0000300320000002000a00188000e
:100490004440a800000006008a1f78008b1f7800e7
:1004a0000000060091018800800478000000eb0045
:1004b0001a003700e284440032a0b4009905ba0063
:1004c000e284440032a0b4009906ba00e2844400f9
:1004d00032a0b4000006eb00476fde00fd07b2005b
:1004e000636ce10003003a00ebff07000000eb0043
:1004f0000a003700606ce10004003a00005deb0088
:100500008b05e900fdff3e00040037006168e10053
:10051000010032000086eb000b00070019c7ba008b
:100520001905ba000e04e00003003a000a00e000da
:10053000e0ff3a0000000600fe07b2009e018800be
:100540008a047800f5ff3700395dba008b05e900b1
:100550000c003200295dba008b05e900080032006a
:100560000c00e00003003a00e284440032a0b40032
:10057000f5ff370019ddba008b05e900faff3a00f4
:100580008904e800e184440032a0b40000000600c1
:1005900000000000000000003600f800809fbe0050
:1005a000829fbe00849fbe00869fbe000000fa00ae
:1005b0000f030700c04080000000e000020032008e
:1005c000c04080000000010030d0200010407800c2
:1005d0008040e80030d020000148780020d0200082
:1005e00011c0b300014878008460a9000080fa00bf
:1005f0004f03be004f02be004f01be004f00be00c1
:100600003600f900004006003600f800809fbe006a
:10061000829fbe00849fbe00869fbe000000fa003d
:100620008020a9000000eb00ca0607000080fa0045
:100630004f03be004f02be004f01be004f00be0080
:100640003600f900004006003600f800809fbe002a
:10065000829fbe00849fbe00869fbe000000fa00fd
:10066000c10607008040a90010002000b90607005d
:100670000080fa004f03be004f02be004f01be00d3
:100680004f00be003600f900004006003600f800ba
:10069000809fbe00829fbe00849fbe00869fbe00da
:1006a0000000fa008060a90020002000a9060700d1
:1006b0000080fa004f03be004f02be004f01be0093
:1006c0004f00be003600f900004006003600f8007a
:1006d000809fbe00829fbe00849fbe00869fbe009a
:1006e0000000fa008080a900300020009906070071
:1006f0000080fa004f03be004f02be004f01be0053
:100700004f00be003600f900004006000040da004d
:100710000000fe000000050003f0a200889fbe005c
:100720008a9fbe008c1f780000010700070133007c
:100730006450e1004f0032006420e10052003200ba
:1007400003826c0007003b000905d0000306d000bf
:10075000820f54000c065d000200390002003200d6
:1007600089017800030678008582550004003d0069
:100770000003fd008103fd008502ea008b85420035
:10078000840f720002003b0060001000e08018003f
:100790006011b8000005eb007a28e1000a0039007a
:1007a00006007800c75ddd00f707b200878075009e
:1007b0002d003700828171000a0178006105600018
:1007c0008180d1000080d3008502e900f9ff3b0061
:1007d000060440008784480002003b0060041400c7
:1007e000e0841c000988a300070032008a817100a0
:1007f00082817100610164008904d1000884d30002
:100800008b05e800170037000978a30013003a00b1
:100810000b00e000130034008b05e90008044400dd
:1008200089844c000a4474000978a3000d003a0042
:100830000b00e000070034008b05e90008044400c9
:1008400089844c0001003a000b0020000978a300c5
:10085000f7ff32000001eb000200370082817100d7
:100860000a017800760007000cf0a70001f0a00054
:10087000bf0037006420e10002003a00838f6c0063
:10088000bf0033000801be000200be00b800370000
:10089000889fbe008a9fbe008c1f7800a3000700bf
:1008a000aa00330003866c006450e1002e00320081
:1008b0006420e100330032006150e1002f0032007b
:1008c0006120e1003100320085855500eb07b00062
:1008d0000900200008042000050037000804440037
:1008e00089844c000a0031000603430087834b00d3
:1008f0000001530081815b00f8ff33000203be005a
:100900000800a0000804440089844c00f6ff390068
:10091000c639dd008301730001003200130020009e
:100920008904d1000884d3000998a300050032008f
:100930000800a7000300a0008904d1000884d300a8
:100940008b05e8008904d1000884d3000001eb0086
:100950000281d2003a00070001f0a1000cf0a700cc
:1009600001f0a000820037006420e1008400320022
:100970000801be000200be00f7ff37006120e10061
:100980007f0032006000b800f3ff37000000200055
:1009900001f82700f0ff370014002000b1003700f5
:1009a000f4ff2f00af0037000001be004a0007002f
:1009b0000470a70003f0a1006509b1001600320021
:1009c0000d0035006828e10006003500f0ff2f001b
:1009d000f1ff27000300e00013003b0001002800a6
:1009e0000000050000004000818048008502e90009
:1009f000fcff3a0008003700f88f420002003c007c
:100a00008000eb00000005008100d1000080d300d1
:100a10008502e800fcff3a000300e00002003b0012
:100a200060001000e0801800000006004f89de0022
:100a300082017800a60037006011b800b4003700ca
:100a400081002000618055000b003d000b0020005c
:100a500061fe2f000100e1001d0034008281710061
:100a6000610164008904d1000884d3000000e8001b
:100a7000faff3a007100200061006400030070007a
:100a8000020060000900320061044400e0844c0070
:100a90000988a500050032008b05e8006808e10020
:100aa00002003a008904d1000884d300f20f20002c
:100ab0000258e10005003d00c75ddd00f907b20006
:100ac0008980750008007800000006000bf82700f8
:100ad0008b00780000000500c70ade00f107b200b5
:100ae000f50fb20008003200e1cf420002003200f0
:100af0000170a00024000500810f70000100320089
:100b00000408050044000500810f700002003a004f
:100b1000140005008502e9000000400081c0480083
:100b2000fcff3b000170a000240005000004be0093
:100b3000e9ff07000003be000405be000200be007e
:100b4000e5ff0700844f7500000006000200be00ac
:100b50006450e100050036006420e1000200360028
:100b60000968a30001003a000800be000160a0006f
:100b70004f0678004f05be004f04be00000006007f
:100b8000f0ff2f00f1ff2700f9ff3700889fbe001c
:100b90008a9fbe008c1f7800e4ff0700ebff330044
:100ba00003866c006450e100240032006420e10000
:100bb000270032006150e100220032006120e10094
:100bc000210032008b854200eb07b1000134b800f0
:100bd000003ab8000804420089844a00013ab8008b
:100be0000030b8008880400009014a00040033004a
:100bf0000000400081804800020149008b05e900a7
:100c0000c909dd00830170000100320013002000db
:100c1000c814de004814dd004709de001200b200ef
:100c2000c808de000884700085ff070001f0a100fd
:100c30000cf0a70001f0a000cdff37006120e1001b
:100c4000cfff32000801be000200be00f7ff3700f0
:100c50006150e100fcff3a00c9ff37000001eb00e2
:100c60005a003700889fbe008a9fbe00841f78000c
:100c7000aeff07004f00780011003300f0ff2f0097
:100c8000838f6c0006003b00040565000a00a70086
:100c90000800370009f0a600100020000800370007
:100ca000820f5400838f5c00030039001000200085
:100cb00001003e000000200009f0a7000000ea004b
:100cc0004f05be004f04be000000e000000006001b
:100cd000881f7800030478000300e00007003d004f
:100ce00060001000e080180060011900e081190028
:100cf00002003b0001f02d00030037000400070054
:100d000008f0a70001f0a0004f04780000000600e2
:100d1000889fbe008a9fbe0000827000040271009e
:100d200004827100260032000004be000200be00f2
:100d30006011b8006b092000950220000182cf00ed
:100d40000a0039000541b1000082cf0007003900d8
:100d50000541b1000982cf00040039000541b1000e
:100d60000882cf00010039000541b1000542520060
:100d7000120032000a003b008281710061016400b0
:100d80008100d1000080d3008984d3000884d3007f
:100d90008b05e8000442e800f7ff3a00070037003f
:100da0000804440089844c00000048008180480009
:100db0008b05e9000442e900f9ff3a0020ff070033
:100dc0004f05be004f04be0000000600889fbe0015
:100dd0008a9fbe008c9fbe00820578000004be0082
:100de0003dff07000800be006420e1000700390055
:100df00002003a00f1ff2700f0ff2f000160a00081
:100e00001202200012418800550037006120e100e5
:100e100003003a000b00a70001f823005000370040
:100e200001f0a1000200210093642400dafe070013
:100e30000800be0004003500b2fd2000930c240021
:100e40004b0007000004be000005eb000b00a600ed
:100e50004f0dde0001f0a1000004be0032982f000b
:100e600023ea230049ff07000001eb0003f0230001
:100e70000b00a70003f8230028fe0700cafe0700a6
:100e80000000a7000a00a200e8fe07000b00e00037
:100e9000030032000200200003f023001efe0700c2
:100ea00001f0a2000006be0002002000930424000e
:100eb00036ff07000801be0018fe0700809fbe0035
:100ec0000c00be0022a22a00d3a723002fff070098
:100ed0004f01be0011fe07000004be0001f0a1009a
:100ee0000200200003982300abfe07000800be00ac
:100ef000190035000001be0024ff07000006be00f7
:100f0000b2c52900e362230020ff070022222b0044
:100f1000f3942b0001fe07000c01be001bff07002d
:100f2000e273280083c02300fcfd07000c01be0013
:100f300016ff070042aa2a00a3e22b00f7fd0700d4
:100f40000c01be0011ff07000801be000fff0700e3
:100f50000801be00f1fd07000a00a70001f0a20091
:100f60004f06be004f05be004f04be000000060045
:100f70000400200000003700889fbe008a9fbe004a
:100f80008c1f78004f26dd00e8fe0700effe3300df
:100f90006120e100430032006250e10041003e0068
:100fa0003e0039006420e1003c003200058255001b
:100fb0000f003b000402e80038003a00800f5300a5
:100fc000818f5b00350034000800be0003f0a100f3
:100fd00001f0a60003f0a0000cf0a700cffd070071
:100fe000e3fe37000603430087834b000c464600b0
:100ff0000005530081855b00020033000a03be0038
:101000000c00a0000402e900f6ff3b008505780013
:101010000602430087824b0004003a006000b800db
:1010200009f0a70001f0a000d1fe37000002520035
:1010300081825a000704e0000400330006034300e5
:1010400087834b008b05e900faff3700090578001c
:101050000604be000203be006011b80078fe07005f
:10106000e00f5200e08f5a000700350002003c00fc
:101070000c08a300040032000601be0003f0a0002b
:101080000cf0a700a5fd07000a85680001f0a1008b
:101090000af0a70001f0a000b5fe37000800be006e
:1010a000b3fe3700100220000cf0a60010418800ab
:0410b000b3fe370054
:020000040000fa
:1010b4000000fa000021ef00f0c7200010088800ab
:1010c4000000280020088800c04080000000e000e4
:1010d40002003a00e0c12000da0107008460a900a0
:1010e4009460a80020d020008040eb0001487800e4
:1010f4000080fa00000006000400fa00889fbe0089
:10110400220207008000eb004afe07000004be0034
:1011140060408000c200dd0040822000008040006a
:101124001002be0080408000914080000001be009b
:101134000400be0094fe07000200200003f0230018
:1011440075fd07000001be000800be008efe07000a
:1011540014fe0700000f78000c0207008000eb006b
:1011640034fe07000004be0060408000c200dd00c1
:10117400809b2000008040001002be008040800060
:10118400914080000001be000400be007efe070006
:101194000200200003f023005ffd07000001be00f1
:1011a4000800be0078fe0700fefd07001007980047
:1011b4001e007800000c88001e009000300c88008f
:1011c400604080000000e8006040880061408000ca
:1011d40040062000808f5000010034000c28ef00ee
:1011e4004f04be000080fa00000006000400fa006c
:1011f400889fbe00001880008000eb000dfe0700f1
:10120400923f2e00f3f823005ffe070002002c003b
:10121400f34024003ffd070000408800114088008f
:10122400004080001140800018c0b3006011b80075
:10123400d8fd07000000e000010035000044eb0089
:101244000804e000050032000040800011408000e6
:1012540001f0a20000408800114088000440800092
:1012640015408000404080005140800018c0b30009
:101274000001be000400be00c8fd07000000e0003d
:1012840001003c000044eb000804e00004003200cc
:101294000040800011408000404088005140880098
:1012a400a0408000b1408000204088003140880088
:1012b400704080000000e8007040880071408000a9
:1012c40020032000808f50004e00340040408000f6
:1012d4005140800000408800114088000440800094
:1012e40015408000204080003140800018c0b300c9
:1012f4000001be000400be00a6fd07000000e000df
:10130400010035000044eb000804e000080032004e
:101314008040800091408000a2702d0033ba2300e9
:10132400fdfc0700804088009140880014003700cd
:10133400044080001540800020408000314080003f
:1013440018c0b3000001be000400be0093fd0700f6
:101354000000e00001003c000044eb000804e00051
:10136400070032008040800091408000a2702d0070
:1013740033ba2300e7fc07008040880091408800ce
:10138400804080009140800018c0b30032332300b5
:1013940033f7230081fd07000000e00001003c005a
:1013a4000044eb000804e000050032003033230061
:1013b40031f7230080408800914088000d003700f9
:1013c400804080009140800018c0b3006011b800d4
:1013d40070fd07000000e000010035000044eb0050
:1013e4000804e000030032006000b8008040880078
:1013f400914088006000b800404088005140880057
:101404000e28ef00610107008000eb0089fd070052
:101414000004be0060408000c200dd004082200065
:10142400008040001002be00804080009140800097
:101434000001be000400be00d3fd0700020020002e
:1014440003f02300b4fc07000001be000800be0046
:10145400cdfd070053fd0700000f78004b01070086
:101464008000eb0073fd07000004be0060408000b4
:10147400c200dd00809b2000008040001002be00fe
:1014840080408000914080000001be000400be0046
:10149400bdfd07000200200003f023009efc0700ae
:1014a4000001be000800be00b7fd07003dfd0700b7
:1014b400100798001e007800000c88001e009000a1
:1014c400300c8800604080000000e8006040880024
:1014d4006140800040062000808f500001003400ed
:1014e4000c28ef004f04be000080fa000000060044
:1014f4000400fa00889fbe00001880008000eb0002
:101504004cfd0700923f2e00f3f823009efd0700d8
:1015140002002c00f34024007efc070000408800f9
:1015240011408800004080001140800018c0b300c2
:101534006011b80017fd07000000e000010035004d
:101544000044eb000804e000050032000040800085
:101554001140800001f0a200004088001140880082
:1015640060408000c200dd00c0b420000080400064
:101574001002be00a0408000b14080000001be0007
:101584000400be0080fd0700204088003140880030
:10159400204080003140800018c0b3006011b800c2
:1015a400fcfc07000000e000010035000044eb00f3
:1015b4000804e00005003200204080003140800033
:1015c40001f0a200204088003140880004408000df
:1015d40015408000204080003140800018c0b300d6
:1015e4000001be000400be00eafc07000000e000a9
:1015f400010035000044eb000804e000080032005c
:10160400804080009140800072712b0013a523005c
:1016140041fc070080408800914088001400370096
:10162400044080001540800020408000314080004c
:1016340018c0b3000001be000400be00d7fc0700c0
:101644000000e00001003c000044eb000804e0005e
:1016540007003200804080009140800072712b00ae
:1016640013a523002bfc07008040880091408800cc
:10167400804080009140800018c0b30032332300c2
:1016840033f72300c5fc07000000e00001003c0024
:101694000044eb000804e00005003200303323006e
:1016a40031f7230080408800914088000d00370006
:1016b400804080009140800018c0b3006011b800e1
:1016c400b4fc07000000e000010035000044eb001a
:1016d4000804e000030032006000b8008040880085
:1016e40091408800a90007008000eb00d1fc0700ae
:1016f4000004be0060408000c200dd004082200083
:10170400008040001002be008040800091408000b4
:101714000001be000400be001bfd07000200200003
:1017240003f02300fcfb07000001be000800be001c
:1017340015fd07009bfc0700000f780093000700cd
:101744008000eb00bbfc07000004be00604080008a
:10175400c200dd00809b2000008040001002be001b
:1017640080408000914080000001be000400be0063
:1017740005fd07000200200003f02300e6fb07003c
:101784000001be000800be00fffc070085fc070046
:10179400100798001e007800000c88001e009000be
:1017a400300c8800604080000000e8006040880041
:1017b4006140800040062000808f5000010034000a
:1017c4000c28ef004f04be000080fa000000060061
:1017d4000200fa00000f78009e00780011088800cb
:1017e40020d020008040eb00014878000080fa00ff
:1017f400000006000000fa00100880000080fa00d3
:10180400000006000200fa00000f78009e00780035
:101814000108880020d020008040eb0001487800b7
:101824000080fa00000006000000fa0000088000b2
:101834000080fa00000006000000fa000080fa00b0
:10184400000006000200fa00000f78009460a9006e
:101854009e007800c14088009460a8000080fa00cf
:10186400000006000000fa0020d020008040eb00b9
:10187400014878009460a80005e1a8000080fa00ff
:10188400000006000000fa0005e1a9009460a90028
:101894000080fa00000006000200fa0020d02000b8
:1018a400104f78001e4078000004e000030032006e
:1018b40020d020008040eb00014878001e407800d2
:1018c4000080fa00000006000000fa0030d020007a
:1018d400104078000080fb000080fa000000060041
:1018e4000000fa0030d020008040eb00014878006e
:1018f4000080fa00000006000000fa000621ef0054
:10190400a0422000600888000000280080088800a9
:1019140000d020008040eb00014878000080fa00ed
:10192400000006000000fa002104800000082000e6
:10193400008060000000e0000900320010d02000a8
:10194400104078008040e80010d020000148780062
:1019540000d0200011c0b3000148780084e0a90041
:101964000080fa00000006000200fa00000f780070
:101974009e0078006108880000d020008040eb00c1
:10198400014878000080fa00000006000000fa0018
:10199400600880000080fa00000006000200fa00df
:1019a400000f78009e0078003108880000d02000e5
:1019b4008040eb00014878000080fa000000060037
:1019c4000000fa00300880000080fa0000000600e1
:1019d4000000fa0000d020008040eb0001487800ad
:1019e40011e1a8000080fa00000006000000fa00df
:1019f40011e1a9000080fa00000006000200fa00cc
:101a040000d02000104f78001e4078000004e00051
:101a14000300320000d020008040eb000148780031
:101a24001e4078000080fa00000006000000fa0062
:101a340010d02000104078000080fb000080fa00e5
:101a4400000006000000fa0010d020008040eb00e7
:101a5400014878000080fa00000006000000fa0047
:101a6400400e2800001988008040200010198800ca
:101a740000f02900201988002823ef001000280016
:101a840080198800101980004200de006f40600059
:101a940020e8b7000080fa00000006000000fa0009
:101aa4002023a8000080fa00000006000000fa00cd
:101ab4002023a9000080fa00000006000600fa00b6
:101ac4002007980000302000100798000000eb0069
:101ad400000f78000b0037001e0078000000400063
:101ae400ae009000008040009e00900091007800bd
:101af400010878001e0090000080e800100798009c
:101b04001e0fe80020c8bf000080fb009e0f50009d
:101b1400f1ff3d001e0078000080fa00000006007e
:101b24000000fa00001880000080fa00000006009f
:101b34000000fa0000198000004078006140600055
:101b44000080fb0000f0a7000000ea000000ea00ab
:101b54004f00de00004078000080fa00000006001c
:101b64000200fa00000f78009e00780041198800f6
:101b74000080fa00000006000200fa00000f78005e
:101b84001e007800f6ff0700c4ff0700c7ff070028
:101b940000000000e6ff07000004a2000004e000cb
:101ba400fcff3a00deff07000080fa000000060098
:101bb4000000fa0085a0a9000080fa0000000600d9
:101bc4000000fa008621ef008821ef006000200069
:101bd400500c8800500c8000004078006740600082
:101be4000080fb00d04088000080fa00000006005e
:101bf4000000fa000080fa00000006000000fa006d
:101c04002104800000042000008060000000e00047
:101c140002003200f6ff070084c0a9000080fa0029
:101c2400000006000000fa00d04080000040780068
:101c3400674060000080fb0067006000520c800079
:101c440081ff2f008100610001007000500c8800aa
:101c54000080fa00000006000000fa00510c800029
:101c640080ff2f0000806000500c88000080fa0084
:101c7400000006000200fa00000f78009e007800c1
:101c8400310c88000080fa00000006000200fa000f
:101c9400000f78009e007800410c88000080fa0054
:101ca400000006000000fa00200480004600de0068
:101cb400614060000080fb0000f0a7000000ea0023
:101cc4000000ea004f00de00004078000080fa00c7
:101cd400000006000400fa00100798001e0090009f
:101ce4000000e0000a003a00500c80004400de00ce
:101cf400614060000080fb0000f0a7000000ea00e3
:101d04000000ea004f00de00004f780001003700b9
:101d1400000000001e4078000080fa000000060069
:101d24000000fa008021ef008221ef006000200013
:101d3400200c8800200c8000004078006740600080
:101d44000080fb00e04088000080fa0000000600ec
:101d54000000fa000080fa00000006000000fa000b
:101d640020048000640060000000e00002003200f3
:101d7400f7ff07008440a9000080fa000000060075
:101d84000000fa00e04080000040780067406000f6
:101d94000080fb0067006000220c800081ff2f00a0
:101da4008100610001007000200c88000080fa00ae
:101db400000006000000fa00210c800080ff2f00c4
:101dc40000806000200c88000080fa0000000600fb
:101dd4000200fa00000f78009e007800010c8800d1
:101de4000080fa00000006000200fa00000f7800ec
:101df4009e007800110c88000080fa0000000600a4
:101e04000000fa00200480004200de00614060000f
:101e14000080fb0000f0a7000000ea000000ea00d8
:101e24004f00de00004078000080fa000000060049
:101e34000400fa00100798001e0090000000e00063
:101e44000a003a00200c80004400de00614060007b
:101e54000080fb0000f0a7000000ea000000ea0098
:101e64004f00de00004f7800010037000000000042
:101e74001e4078000080fa00000006000000fa000e
:101e8400881f78000c28ef003f003700684080006e
:101e940060408000cf80de00e3fa070002002000eb
:101ea400832c240079fa07000001be001afa070007
:101eb400b2fd20009304240033fb070066fb0700f7
:101ec4000200200003f023002ffb0700c241dd00c5
:101ed40042822000028141000089be0068408000e7
:101ee40060408000cf80de00cffa070002002000af
:101ef400832c240065fa07000001be0006fa0700df
:101f0400b2fd2000930424001ffb0700b2fd200053
:101f14009304240000fa07004ffb0700020020008e
:101f240003f0230018fb0700c241dd00829b200060
:101f3400028141000089be0068408000604080004a
:101f4400cf80de00b8fa070002002000832c2400b2
:101f54004efa07000001be00eff90700b2fd2000b1
:101f64009304240008fb07003bfb0700c241dd008b
:101f7400c2b42000028141000089be00604080009c
:101f84000000e800604088006140800040062000b6
:101f9400808f5000bdff34000c28ef00780007004c
:101fa400ffff37000000fa00c422ef00cc22ef004c
:101fb4007001200000168800f02f2f0040168800c2
:101fc4006820ef006a20ef00c622ef00ce22ef0067
:101fd4002c23ef00113a8000f00b200000816000f8
:101fe40060042000710520002374200080497800db
:101ff40081497800824978005136800000fe2f0024
:10200400008060002001b300503688005136800003
:10201400f00f2e008080600000302100010070006d
:1020240050368800103a8000000178000260a00059
:10203400600420007105200023742000804978008a
:1020440081497800824978000080fa000000060087
:020000040000fa
:10205400000d00000200000000000000020d00005e
:102064000200000000000000180800000200000048
:10207400000000001a080000020000000000000038
:102084001c0800000200000000000000e00c00003a
:1020940020000000000000001e08000002000000f4
:1020a40002000000ffff0000200800000200000002
:1020b4000000000024080000bc0400000000000030
:1020c4001008000008000000020000008fc2f500a4
:1020d4003e00000052430000000800001000000011
:1020e40000000000220800000200000000000000c0
:0420f40000000000e8
:020000040000fa
:1020f8000000fa0000102300203a88004827ef006b
:102108007027ef007227ef007427ef0032002000dd
:1021180080072000a109200033742000804978003e
:1021280081497800824978000001eb0060042000b2
:1021380071052000237420008049780081497800c7
:10214800824978000080fa00000006000200fa00c8
:10215800000f78009e007800f1408800ffff3700ec
:102168000000fa0000ce20008007780080cf200011
:10217800000188000080fa00000006000000fa0054
:1021880087ff0700daff07000700070032fe070095
:10219800e2fe070089fe0700d6fd0700c3fb070023
:1021a8000080fa00000006000000fa002105800007
:1021b800f0ff28000080600000c0a0002005880013
:0821c8000080fa00000006008f
:020000040000fa
:020000040001f9
:0457f8009dfb000015
:020000040000fa
:020000040001f9
:0457fc007f3d0000ed
:00000001FF
